:020000040800F2
:1000000050040020AD010008970D0008EF0C000817
:10001000950D0008B9020008E10E0008000000007C
:100020000000000000000000000000009B0D000820
:10003000BB02000800000000990D00089D0D00089B
:10004000C7010008C7010008C7010008C701000870
:10005000C7010008C7010008C7010008C701000860
:10006000C7010008C7010008C7010008C701000850
:10007000C7010008C7010008C7010008C701000840
:10008000C7010008C7010008C70100080000000000
:10009000000000000000000000000000C701000890
:1000A000C70100083D0E0008C7010008C70100088D
:1000B000C7010008C7010008C7010008C701000800
:1000C000C7010008C7010008C7010008C7010008F0
:1000D000C7010008C7010008C701000800000000B0
:1000E000C7010008C7010008C701000800000000A0
:1000F000000000000000000000000000C701000830
:1001000000000000C7010008C7010008C70100087F
:1001100000000000000000000000000000000000DF
:10012000C7010008C7010008C7010008C70100088F
:10013000C7010008000000000000000000000000EF
:10014000000000000000000000000000C7010008DF
:10015000C7010008C7010008C7010008C70100085F
:10016000C7010008C70100080000000000000000EF
:10017000000000000000000000000000000000007F
:1001800000000000C701000800000000000000009F
:10019000C7010008C7010008DFF80CD000F07AF8AA
:1001A00000480047210F00085004002006488047FF
:1001B00006480047FEE7FEE7FEE7FEE7FEE7FEE74C
:1001C000FEE7FEE7FEE7FEE7210E000899010008C2
:1001D0002DE9F05F0546002092469B46884606467C
:1001E000814640241BE0284641464746224600F00F
:1001F00041F853465A46C01A914110D31146184649
:10020000224600F028F82D1A67EB01084F462246D7
:100210000120002100F01FF817EB00094E41201EBD
:10022000A4F10104DFDC484631462A464346BDE8D6
:10023000F09FD2B201E000F8012B491EFBD27047BB
:100240000022F6E710B513460A4604461946FFF7A2
:10025000F0FF204610BD202A04DB203A00FA02F10C
:10026000002070479140C2F1200320FA03F31943A4
:1002700090407047202A04DB203A21FA02F0002146
:10028000704721FA02F3D040C2F1200291400843A6
:1002900019467047064C074D06E0E06840F0010340
:1002A00094E8070098471034AC42F6D3FFF778FF84
:1002B000580F0008780F0008FEE7704770470000ED
:1002C0002DE9F84F00224FF0010803254FF00F0EE3
:1002D0000B6808FA02F42340A34271D14E68012E44
:1002E00005D0022E03D0112E01D0122E15D1866812
:1002F000570005FA07FC26EA0C06D1F80CC00CFAE8
:1003000007FC4CEA060CC0F808C04668A6430C7906
:10031000C4F30014944034434460C668570005FA9F
:1003200007FC8C6826EA0C06BC403443C4604C6869
:10033000022C01D0122C13D1D40800EB8404A34664
:10034000D4F8209054074FEAD46A0EFA0AF629EA44
:1003500006090E6906FA0AF646EA0906CBF8206095
:1003600004680E7924EA0C0406F00306BE40264316
:1003700006604C68E40056D52E4C266846F480464C
:100380002660246822F0030604F4804400942A4C7A
:100390003444A446D4F808489607370F0EFA07F6F7
:1003A000B443264EB04201D1002615E0244EB0429F
:1003B00001D1012610E0234EB04202D102260BE00B
:1003C00031E0214EB04201D1032605E01F4EB0427C
:1003D00001D1042600E00726BE402643CCF8086879
:1003E0001B4E34684F689C43FF0300D51C433460A8
:1003F000174E361D34684F689C43BF0300D51C431D
:100400003460134E083634684F689C43FF0200D5B1
:100410001C4334600E4E0C3634684F689C43BF0258
:1004200000D51C433460521C102AFFF451AFBDE8C4
:10043000F88F0000443802400030014000000240C4
:100440000004024000080240000C0240001002407C
:10045000003C0140426931EA020200D10904816195
:1004600070470AB1816170470904FBE70148806861
:1004700070470000000000200248816802781144A3
:1004800081607047000000200B4810B5016841F4FE
:1004900000710160016841F480610160016841F40C
:1004A00080710160032000F06FF8002000F006F872
:1004B00000F024F8002010BD003C024070B50D4D46
:1004C00004464FF47A712878B1FBF0F00A490968C4
:1004D000B1FBF0F000F0E4FA48B9102C07D200228A
:1004E0002146501E00F030F800206C6070BD0120E5
:1004F00070BD0000000000200C0000200A4808B574
:10050000016841F480410160006800F4804000907F
:100510000548001F016841F080510160006800F04B
:100520008050009008BD000044380240002809DBDC
:1005300000F01F02012191404009800000F1E020FD
:10054000C0F8001170470000F0B40E4B1B680C4659
:10055000C3F30223C3F10705042D00D90425191D97
:10056000072901D2002300E0DB1E012606FA05F16F
:10057000491E214099409E40761E16403143F0BCF2
:1005800000F0AFBC0CED00E0064900F0070208687F
:100590004FF6FF03184040EA0220034A1043086068
:1005A000704700000CED00E00000FA052DE9F0476F
:1005B0000E46050065D0DFF81481D8F80000F7B2C8
:1005C00000F00F00B04207D288F80070D8F80000A1
:1005D00000F00F00B04254D128683D4C810712D57D
:1005E000400703D5206840F4E050206028780007D9
:1005F00003D5206840F4604020602068A96820F09E
:10060000F000084320602878C0072DD03049686882
:100610000839012812D0022813D0032811D0096804
:10062000890700292DDA216821F0030101432160A7
:10063000FFF71CFF814641F2883A0EE00968890302
:10064000EFE709688901ECE7FFF710FFA0EB09016C
:10065000514502D90320BDE8F0872068696800F0A1
:100660000C00B0EB810FEFD1D8F80010404601F03C
:100670000F01B14207D90770006800F00F00B042C7
:1006800001D00120E7E72878400705D52068E96810
:1006900020F4E050084320602878000706D5206841
:1006A000296920F4604040EAC100206000F018F899
:1006B0002168084AC1F30311515CC840064908602B
:1006C00006480068FFF7FAFE0020C4E7003C02403D
:1006D00008380240480F00080C00002004000020E9
:1006E000154810B5006810F00C02144813D01449D6
:1006F000042A0FD0082A0ED10F4C241F2268236829
:1007000002F03F025B0207D52068C0F38810A0FB0F
:10071000010106E0084610BD2168C1F38811A1FB64
:1007200000010023FFF754FD2168C1F30141491C7A
:100730004900B0FBF1F010BD083802400024F4007D
:1007400040787D012DE9F84F040076D02078DFF85D
:1007500038A3CE4DC00749D0DAF800105046C1F397
:100760008101012908D00068C0F3810002280AD164
:10077000281D0068400206D52868800336D56068C9
:100780000028E2D032E06068B0F5803F10D0B0F5CC
:10079000A02F286810D020F480302860286820F42A
:1007A000802028606068A0B1FFF760FE06460CE07C
:1007B000286840F48030F4E740F480202860F7E7B0
:1007C000FFF754FE801B642873D828688003F7D590
:1007D0000CE0FFF74BFE064605E000BFFFF746FEC4
:1007E000801B6428F0D828688003F7D42078DFF8CD
:1007F000A08280074FF000093ED5DAF8001050467D
:1008000011F00C0F09D00068C0F3810002280BD151
:100810009D48001F0068400206D42868800715D54F
:10082000E068012809D111E0E068B8B10120C8F8FA
:100830000000FFF71BFE064605E020E1FFF716FE6D
:10084000801B0228C0D828688007F7D5286821694E
:1008500020F0F80040EAC10028600DE0C8F80090E0
:10086000FFF704FE064604E0FFF700FE801B0228A7
:100870001FD828688007F7D42078000722D5824E39
:10088000844861696C3671B101210160FFF7EEFDAA
:10089000074604E0FFF7EAFDC01B022809D83068CC
:1008A0008007F7D50EE0C0F80090FFF7DFFD0746A0
:1008B00005E082E0FFF7DAFDC01B02287DD8306832
:1008C0008007F7D42078400768D5DFF8BCB100274F
:1008D0000BF1380BDBF80000C0000BD4DBF8001084
:1008E00041F08051CBF80010DBF80000012700F048
:1008F00080500090684E3068C00510D4306840F4D5
:1009000080703060FFF7B2FD009005E0FFF7AEFDAC
:100910000099401A022850D83068C005F6D55A4EC2
:10092000A068683601280FD00528306810D020F064
:1009300001003060306820F004003060A068B8B179
:10094000FFF794FD00900FE0306840F00100F4E7FD
:1009500040F004003060F7E7FFF788FD0099411A86
:1009600041F28830814266D830688007F4D50EE0C5
:10097000FFF77CFD009007E0FFF778FD0099411A32
:1009800041F28830814256D830688007F4D42FB1C4
:10099000DBF8001021F08051CBF80010A069D0B333
:1009A000DAF800205146C2F38102022A4AD0022816
:1009B000484607D0C8F8600000E03CE0FFF756FD6D
:1009C00004463BE04746C8F86000FFF74FFD064687
:1009D00005E000BFFFF74AFD801B02282BD82868DE
:1009E0008001F7D4D4E907010843A16A2B4A4908DA
:1009F00002EB0141626A41EA8211084394F82C102B
:100A000040EA01612048001F016001203866FFF7BD
:100A10002DFD044605E034E0FFF728FD001B022809
:100A200009D828688001F7D52BE000BFFFF71EFD2D
:100A3000001B022802D90320BDE8F88F2868800136
:100A4000F4D41EE00128F7D00868E26900F48001C0
:100A5000914214D1226A00F03F0191420FD147F632
:100A6000C071626A0140914209D1A26A00F440312A
:100A7000914204D1E16A00F07060884201D0012007
:100A8000DAE70020D8E700000838024000380240CA
:100A900000004742800E4742007000400000FFFF08
:100AA00010B5401EB0F1807F01D3012010BD4FF082
:100AB000E02460610F21601700F013FA0020A061AC
:100AC00007202061002010BD7047704710B504005A
:100AD00003D094F83D0010B107E0012010BD0020C4
:100AE00084F83C00204600F00DF8022084F83D0018
:100AF000211D206800F0A8F9012084F83D000020A5
:100B000010BD000008B500680B49884212D10B489F
:100B1000016841F4003101600068002200F40030F7
:100B2000009011461920FFF70FFDBDE8084019207D
:100B3000FFF7FCBC08BD00000044014044380240FF
:100B40000168CA6842F00102CA600068816801F069
:100B50000701062903D0016841F00101016000206E
:100B60007047704770B50446006801694FF0000592
:100B7000C943890715D4C168C943890711D4E91E3F
:100B8000016101202077206880698007204602D01B
:100B9000FFF7E7FF04E000F098F8204600F096F831
:100BA000257720680169C943490717D4C168C9433B
:100BB000490713D46FF004010161022020772068F7
:100BC000806910F4407F204602D0FFF7CAFF04E09E
:100BD00000F07BF8204600F079F82577206801695D
:100BE000C943090716D4C168C943090712D46FF075
:100BF00008010161042020772068C0698007204631
:100C000002D0FFF7AEFF04E000F05FF8204600F0EE
:100C10005DF8257720680169C943C90617D4C16802
:100C2000C943C90613D46FF0100101610820207771
:100C30002068C06910F4407F204602D0FFF791FF82
:100C400004E000F042F8204600F040F825772068E4
:100C50000169C943C90708D1C168C943C90704D19B
:100C6000891E0161204600F033F820680169C943FC
:100C7000090609D4C168C943090605D46FF080018B
:100C800001612046FFF720FF20680169C94349063A
:100C900009D4C168C943490605D46FF04001016118
:100CA000204600F023F820680169C94389060BD467
:100CB000C168C943890607D46FF02001016120464D
:100CC000BDE87040FFF701BF70BD7047704700007E
:100CD00000680449884203D141140348FFF7BABBB6
:100CE0007047000000440140000802407047FEE7E2
:100CF00070B586B014216846FFF7A2FA16480024A2
:100D0000016841F004010160016801F004010591EE
:100D1000016841F080010160016801F080010591E6
:100D2000016841F00101016000680C4E00F0010013
:100D30004FF400550590002229463046FFF791FBFD
:100D400001200095CDE90104694630460394FFF780
:100D5000B7FA06B070BD000030380240000802400B
:100D60000B4810B5094942F20F72C0E90012002188
:100D7000C0E9021201618161FFF7A8FE002803D0DB
:100D8000BDE81040FFF79ABA10BD000000440140D2
:100D900010000020FEE7704770477047FFF76CBBFC
:100DA00030B593B030216846FFF74AFA14210CA8F9
:100DB000FFF746FA18480025016841F080510160AC
:100DC000006800F0805011901448016841F44041DF
:100DD00001600068022400F440401190012003905B
:100DE00010200490009406940820CDE90750642058
:100DF000CDE9090404200B906846FFF7A3FC0CA979
:100E00000F2081E83100E002CDE90F0503210CA895
:100E1000FFF7CCFB13B030BD4038024000700040FB
:100E20000548016841F47001016003494FF000601A
:100E3000803908607047000088ED00E00148FFF746
:100E400091BE000010000020F0B502681D4B1E4C42
:100E50009F031E4D1E4E984207D0B84205D0A042B7
:100E600003D0A84201D0B04204D122F0700C4A68ED
:100E700042EA0C02984210D0B8420ED0A0420CD0E8
:100E8000A8420AD0B04208D0124CA04205D0124C61
:100E9000A04202D0114CA04203D122F44074CA688F
:100EA00022434C6922F08002224302608A68C262B7
:100EB0000A688262984201D1096901630121416196
:100EC000F0BD0000000001400004004000080040A8
:100ED000000C004000400140004401400048014037
:100EE000FEE70907090E002804DB00F1E02080F886
:100EF0000014704700F00F0000F1E02080F8141D8E
:100F0000704702E008C8121F08C1002AFAD17047D2
:100F10007047002001E001C1121F002AFBD1704779
:100F2000FFF7B2FAFFF73CFFFFF7E2FEFFF718FF0B
:100F300004496FF00100096808610248FFF700FEEC
:100F4000FEE700001000002000000000000000008C
:100F50000102030406070809780F000800000020BA
:100F600010000000020F0008880F00081000002089
:100F700040040000120F00080100000010000000F3
:080F8000000000000024F40051
:040000050800019955
:00000001FF
